:020000040800F2
:1000000000280020611C0008FD18000803190008E2
:10001000091900080F190008151900080000000050
:100020000000000000000000000000001B19000894
:100030002719000800000000331900083F190008C4
:10004000A91C0008A91C0008A91C0008A91C00087C
:10005000A91C0008A91C0008A91C0008A91C00086C
:10006000A91C0008A91C0008A91C0008A91C00085C
:10007000A91C0008A91C0008A91C0008A91C00084C
:10008000A91C0008A91C0008A91C0008A91C00083C
:10009000A91C0008A91C0008A91C0008A91C00082C
:1000A000A91C0008A91C0008A91C0008A91C00081C
:1000B0004D190008A91C000800000000A91C000838
:1000C000A91C00080000000000000000A91C000896
:1000D00000000000A91C0008A91C00080000000086
:1000E000A91C0008A91C0008A91C000800000000A9
:1000F0000000000000000000000000000000000000
:0C01000000000000000000005FF808F1A3
:10010C0010B5054C237833B9044B13B10448AFF345
:10011C0000800123237010BD60000020000000004F
:10012C00D832000808B5034B1BB103490348AFF3A1
:10013C00008008BD0000000064000020D8320008D8
:10014C0080B582B000AF00237B6068E0384A7B68E2
:10015C0052F8232037497B6841F82320364A7B68C4
:10016C0052F8232032497B6841F82320786800F04C
:10017C008DF8024630497B6841F823202D4A7B6874
:10018C0052F823202A497B6851F823309A4243D1F4
:10019C00274A7B6852F8232027497B6851F8233083
:1001AC009A4239D1254A7B6852F8232022497B6830
:1001BC0051F823309A421BD01F4A7B6852F82320F7
:1001CC001E497B6841F823201B4A7B6852F8233078
:1001DC00002B21D11A4A7B6852F8232019497B68DD
:1001EC0041F82320184A7B68012142F8231013E0C0
:1001FC00144A7B6852F823305A1E12497B6841F826
:10020C002320104A7B6852F82330002B04D10B4A70
:10021C007B68012142F823107B6801337B607B688B
:10022C00022B93DD00BF00BF0837BD4680BD00BF69
:10023C000C000020000000201800002024000020EA
:10024C00300000208C0000209800002080B483B087
:10025C0000AF78607B68022B0EDC0B4A7B6852F88F
:10026C002330012B06D1084A7B68002142F8231069
:10027C00012303E0002301E04FF0FF3318460C3755
:10028C00BD4680BC704700BF9800002080B582B08E
:10029C0000AF78607B68022B21DC7B68022B17D0C7
:1002AC007B68022B1DDC7B68002B03D07B68012B49
:1002BC0007D016E04FF400510D4801F0DBFF034668
:1002CC0012E04FF480410A4801F0D4FF03460BE0E2
:1002DC004FF40041064801F0CDFF034604E000BF97
:1002EC0000E000BF4FF0FF3318460837BD4680BD15
:1002FC000010014080B483B000AF786039607B6837
:10030C00002B02D1064A3B6813607B68012B02D19B
:10031C00044A3B68136000BF0C37BD4680BC704775
:10032C00B8000020B400002080B400AF064B1B685E
:10033C00013B054A1360054B1B68013B034A1360E4
:10034C0000BFBD4680BC7047B8000020B400002040
:10035C0080B483B000AF78607B68002B02D1084B6F
:10036C001B6807E07B68012B02D1064B1B6801E080
:10037C004FF0FF3318460C37BD4680BC704700BFAA
:10038C00B8000020B400002098B500AF184B012233
:10039C001A6001F0E5FA00F047FA0346154A1360BB
:1003AC0000F038FA0346144A136000F03DFA044694
:1003BC0000F030FA03461946204600F00DFF0F4BB3
:1003CC001B68002B0ADC0022FA210D4801F0AEF963
:1003DC000A4B1B680133094A136007E0074B0022E4
:1003EC001A600022FA21074801F0A0F900BF98BD5D
:1003FC0084000020B8000020B40000207C00002005
:10040C00950300081504000880B500AF00F0CEFE7F
:10041C0001F0D0FA204B0A221A60204B1B68022BE9
:10042C000ADC0022FA211E4801F080F91B4B1B68E4
:10043C0001331A4A13602DE0184B00221A60FFF7A3
:10044C0073FF184B1B68184A12681146184600F0C7
:10045C00C3FE154B1B68002B17D10022FA21134841
:10046C0001F064F900F0EAF903460F4A136000F05A
:10047C00E5F903460B4A13600A4B1B680A4A1268DB
:10048C001146184600F0A8FE04E00022FA210448A8
:10049C0001F04CF900BF80BD840000207C000020DE
:1004AC0015040008B8000020B4000020BD040008AA
:1004BC0080B500AF01F0A8FA00F078FE204B0B22BB
:1004CC001A60204B1B68022B0ADC0022FA211E4802
:1004DC0001F02CF91B4B1B6801331A4A13602DE0F9
:1004EC00184B00221A60FFF71FFF184B1B68184AA5
:1004FC0012681146184600F06FFE154B1B68002B56
:10050C0017D10022FA21134801F010F900F082F9FA
:10051C0003460E4A136000F087F903460C4A136039
:10052C000A4B1B680A4A12681146184600F054FE22
:10053C0004E00022FA21044801F0F8F800BF80BD65
:10054C00840000207C000020BD040008B8000020BE
:10055C00B40000206505000880B500AF01F07EFAFC
:10056C0000F024FE204B0C221A60204B1B68022B3F
:10057C000ADC0022FA211E4801F0D8F81B4B1B683C
:10058C0001331A4A13602DE0184B00221A60FFF752
:10059C00CBFE184B1B68184A12681146184600F01F
:1005AC001BFE144B1B68002B17D10022FA21134899
:1005BC0001F0BCF800F042F903460E4A136000F05B
:1005CC003DF903460C4A13600A4B1B680A4A126831
:1005DC001146184600F000FE04E00022FA210448FF
:1005EC0001F0A4F800BF80BD840000207C00002036
:1005FC0065050008B8000020B40000200D060008B6
:10060C0080B500AF01F054FA00F0D0FD204B0D2264
:10061C001A60204B1B68022B0ADC0022FA211E48B0
:10062C0001F084F81B4B1B6801331A4A13602DE050
:10063C00184B00221A60FFF777FE184B1B68184AFC
:10064C0012681146184600F0C7FD144B1B68002BAE
:10065C0017D10022FA21134801F068F800F0E4F8F1
:10066C0003460E4A136000F0D5F803460C4A13609B
:10067C000A4B1B680A4A12681146184600F0ACFD7A
:10068C0004E00022FA21044801F050F800BF80BDBC
:10069C00840000207C0000200D060008B80000201B
:1006AC00B40000201504000898B500AF01F082F9E1
:1006BC00042000F0D5FC002242F21071104801F029
:1006CC0035F800F0B1F8034619460020FFF712FE8A
:1006DC0000F0A0F8034619460120FFF70BFE00209E
:1006EC00FFF736FE04460120FFF732FE034619469B
:1006FC00204600F071FD00F0ABFD00BF98BD00BFBF
:10070C001504000898B500AF01F07EF9042000F044
:10071C00A7FC002242F210710F4801F007F800F01C
:10072C008DF8034619460020FFF7E4FD00F086F82B
:10073C00034619460120FFF7DDFD0020FFF708FEF8
:10074C0004460120FFF704FE03461946204600F03C
:10075C0043FD00BF98BD00BFBD04000898B500AFB5
:10076C0001F07CF9042000F07BFC002242F21071B5
:10077C00104800F0DBFF00F04DF80346194600204E
:10078C00FFF7B8FD00F050F8034619460120FFF7BB
:10079C00B1FD0020FFF7DCFD04460120FFF7D8FD7A
:1007AC0003461946204600F017FD00F051FD00BF2E
:1007BC0098BD00BF6505000898B500AF01F078F949
:1007CC00042000F04DFC002242F21071104800F0A1
:1007DC00ADFF00F033F8034619460020FFF78AFD01
:1007EC0000F02CF8034619460120FFF783FD00208A
:1007FC00FFF7AEFD04460120FFF7AAFD034619469C
:10080C00204600F0E9FC00F023FD00BF98BD00BFBE
:10081C000D06000880B400AF024B1B681846BD469D
:10082C0080BC70473C00002080B400AF024B1B68BA
:10083C001846BD4680BC70474000002080B400AF15
:10084C00024B1B681846BD4680BC70474400002014
:10085C0080B500AF104B1B680221184600F0BCFCA1
:10086C0000F0A4FC0D4B1B685A1C0C490A60002BB1
:10087C0002D101F047F908E0084B1B68002B04D0AB
:10088C0001F0BEF9054B00221A600022FA2104483F
:10089C0000F04CFF00BF80BD4C0000208000002009
:1008AC005D08000880B500AF104B1B68032118468B
:1008BC0000F092FC00F07AFC0D4B1B685A1C0C49A2
:1008CC000A60002B02D101F071F908E0084B1B689B
:1008DC00002B04D001F094F9054B00221A60002281
:1008EC00FA21044800F022FF00BF80BD5000002018
:1008FC0080000020B108000880B500AF104B1B68C9
:10090C000421184600F068FC00F050FC0D4B1B68ED
:10091C005A1C0C490A60002B02D101F01DF908E0A9
:10092C00084B1B68002B04D001F06AF9054B002220
:10093C001A600022FA21044800F0F8FE00BF80BDC6
:10094C0048000020800000200509000880B500AF99
:10095C000020FFF77BFC0346002B00F08680454B04
:10096C001B68063B0A2B00F2828001A252F823F08E
:10097C00610A0008610A0008610A0008610A00089F
:10098C00A9090008BF090008D5090008EB090008EF
:10099C00010A0008210A0008410A000800F024FF9F
:1009AC00344B06221A6000220A21334800F0BEFEA6
:1009BC005EE000F019FF2F4B07221A6000220A217B
:1009CC002E4800F0B3FE53E000F00EFF294B082236
:1009DC001A6000220A212A4800F0A8FE48E000F024
:1009EC0003FF244B09221A6000220A21254800F03B
:1009FC009DFE3DE000F0F8FE1E4B0F221A60224BCC
:100A0C0000221A6000F024FC00220A211F4800F08A
:100A1C008DFE2DE000F0E8FE164B10221A601A4BEA
:100A2C0000221A6000F014FC00220A21184800F081
:100A3C007DFE1DE000F0D8FE0E4B01221A60124B19
:100A4C0000221A6000F004FC00220A21114800F078
:100A5C006DFE0DE000F0C8FE064B0E221A6000225F
:100A6C000A210D4800F062FE02E000BF00E000BF6A
:100A7C0000BF80BD84000020B506000811070008E7
:100A8C0069070008C507000880000020B1080008AD
:100A9C0005090008950300085D08000880B500AF43
:100AAC000120FFF7D3FB0346002B7FD0424B1B6882
:100ABC00063B0A2B7CD801A252F823F0F50A000859
:100ACC000B0B0008210B0008370B0008BD0B0008AE
:100ADC00BD0B0008BD0B0008BD0B00084D0B00083A
:100AEC00710B0008950B0008334B07221A6000F0BD
:100AFC007BFE00220A21314800F018FE59E02E4BF3
:100B0C0008221A6000F070FE00220A212C4800F026
:100B1C000DFE4EE0284B09221A6000F065FE002203
:100B2C000A21284800F002FE43E0234B06221A60FB
:100B3C0000F05AFE00220A21234800F0F7FD38E0AD
:100B4C00224B1B68622B03DC204B1B68013300E03B
:100B5C0000231E4A13601D4B1B680221184600F02F
:100B6C003BFB26E01A4B1B68622B03DC184B1B6803
:100B7C00013300E00023164A1360144B1B6802215A
:100B8C00184600F029FB14E0124B1B68622B03DCA7
:100B9C00104B1B68013300E000230E4A13600D4B11
:100BAC001B680221184600F017FB02E000BF00E0B2
:100BBC0000BF00BF80BD00BF8400002011070008EB
:100BCC0069070008C5070008B50600084C0000209E
:100BDC00500000204800002080B500AF0220FFF735
:100BEC0035FB0346002B76D03D4B1B68102B4BD0AE
:100BFC00102B72DC0E2B02D00F2B27D06DE0394B53
:100C0C001A68394B1B68D31A002B02DA374B1B6856
:100C1C0001E0344B1B68354A1360344B1A68344B73
:100C2C001B689A4202D12F4B1B6801E02F4B1B68AB
:100C3C002C4A13602D4B1A682B4B1B68D31A2D4A68
:100C4C0013602C4B1B682C4A136047E0284B1A6826
:100C5C00284B1B681344632B02DD234B1B6801E0FC
:100C6C00234B1B68204A13601F4B1B68204A1360E0
:100C7C00204B1A681C4B1B6813441C4A13601B4BFB
:100C8C001B68184A136029E0164B1A68164B1B6830
:100C9C00D31A002B02DA154B1B6801E0114B1B68B1
:100CAC00124A1360114B1A68114B1B689A4202D1FD
:100CBC000C4B1B6801E00D4B1B680A4A13600B4B75
:100CCC001A68094B1B68D31A0A4A1360094B1B6834
:100CDC00094A136002E000BF00E000BF00BF80BD06
:100CEC00840000204C000020440000204000002024
:100CFC00500000203C0000204800002080B582B04D
:100D0C0000AF78607B68092B00F2808101A252F859
:100D1C0023F000BF490D0008910D0008D90D000803
:100D2C00210E0008690E0008B10E0008F90E00082B
:100D3C00410F0008890F0008D10F00080022012183
:100D4C00C64801F0AEFA00220221C44801F0A9FA0B
:100D5C0000220421C14801F0A4FA00220821BF4856
:100D6C0001F09FFA00221021BC4801F09AFA0022EF
:100D7C002021BA4801F095FA01224021B74801F030
:100D8C0090FA67E101220121B44801F08AFA0022AD
:100D9C000221B24801F085FA00220421AF4801F08B
:100DAC0080FA01220821AD4801F07BFA01221021C2
:100DBC00AA4801F076FA01222021A84801F071FA24
:100DCC0001224021A54801F06CFA43E100220121E7
:100DDC00A24801F066FA00220221A04801F061FA53
:100DEC00012204219D4801F05CFA002208219B4855
:100DFC0001F057FA00221021984801F052FA012212
:100E0C002021964801F04DFA00224021934801F030
:100E1C0048FA1FE100220121904801F042FA002219
:100E2C0002218E4801F03DFA002204218B4801F08A
:100E3C0038FA00220821894801F033FA01221021E6
:100E4C00864801F02EFA01222021844801F029FA6B
:100E5C0000224021814801F024FAFBE0012201210B
:100E6C007E4801F01EFA002202217C4801F019FA9A
:100E7C0000220421794801F014FA01220821774854
:100E8C0001F00FFA01221021744801F00AFA002235
:100E9C002021724801F005FA002240216F4801F030
:100EAC0000FAD7E0002201216C4801F0FAF9012286
:100EBC0002216A4801F0F5F900220421674801F08B
:100ECC00F0F900220821654801F0EBF9012210210C
:100EDC00624801F0E6F900222021604801F0E1F9B6
:100EEC00002240215D4801F0DCF9B3E00022012131
:100EFC005A4801F0D6F901220221584801F0D1F9E3
:100F0C0000220421554801F0CCF900220821534855
:100F1C0001F0C7F900221021504801F0C2F900225B
:100F2C0020214E4801F0BDF9002240214B4801F030
:100F3C00B8F98FE000220121484801F0B2F90022F3
:100F4C000221464801F0ADF900220421434801F08A
:100F5C00A8F901220821414801F0A3F9012210212E
:100F6C003E4801F09EF9012220213C4801F099F9FC
:100F7C0001224021394801F094F96BE00022012153
:100F8C00364801F08EF900220221344801F089F92B
:100F9C0000220421314801F084F9002208212F4855
:100FAC0001F07FF9002210212C4801F07AF900227F
:100FBC0020212A4801F075F900224021274801F030
:100FCC0070F947E000220121244801F06AF900225F
:100FDC000221224801F065F9002204211F4801F08A
:100FEC0060F9002208211D4801F05BF90122102153
:100FFC001A4801F056F900222021184801F051F945
:10100C0000224021154801F04CF923E00122012176
:10101C00124801F046F901220221104801F041F971
:10102C00012204210D4801F03CF9012208210B4852
:10103C0001F037F901221021084801F032F90122A0
:10104C002021064801F02DF901224021034801F02E
:10105C0028F900BF00BF0837BD4680BD000C014019
:10106C0080B582B000AF78607B68032B7ED801A27C
:10107C0052F823F091100008CB100008051100085D
:10108C003F11000800228021464801F00AF9012294
:10109C004FF48071434801F004F901224FF40071C0
:1010AC00404801F0FEF801224FF480613D4801F008
:1010BC00F8F83D4B1B681846FFF720FE6EE0012246
:1010CC008021384801F0EDF800224FF4807135484A
:1010DC0001F0E7F801224FF40071324801F0E1F819
:1010EC0001224FF480612F4801F0DBF82E4B5B6836
:1010FC001846FFF703FE51E001228021294801F038
:10110C00D0F801224FF48071264801F0CAF8002271
:10111C004FF40071234801F0C4F801224FF48061B0
:10112C00204801F0BEF8204B9B681846FFF7E6FDFF
:10113C0034E0012280211B4801F0B3F801224FF466
:10114C008071184801F0ADF801224FF40071154878
:10115C0001F0A7F800224FF48061124801F0A1F8C9
:10116C00114BDB681846FFF7C9FD17E001228021FF
:10117C000C4801F096F801224FF48071094801F0F7
:10118C0090F801224FF40071064801F08AF8012210
:10119C004FF48061034801F084F800BF00BF0837AA
:1011AC00BD4680BD000C0140A400002080B500AFFE
:1011BC00084B1B68032B02DD064B00221A60054B03
:1011CC001B685A1C03490A601846FFF749FF00BF09
:1011DC0080BD00BF8800002080B483B000AF786071
:1011EC0039607B68184A82FB03129210DB17D31A02
:1011FC00164A13607968144B83FB01239A10CB17A2
:10120C00D21A13469B0013445B00CA1A0F4B5A6048
:10121C003B680D4A82FB03129210DB17D31A0B4A60
:10122C0093603968084B83FB01239A10CB17D21AB1
:10123C0013469B0013445B00CA1A044BDA6000BFD0
:10124C000C37BD4680BC704767666666A4000020FC
:10125C0080B400AF034B00221A6000BFBD4680BCB7
:10126C00704700BF8800002080B500AF20210248E5
:10127C0001F02FF800BF80BD0008014080B500AF21
:10128C0000F00EFD00F03AF800F0C0F800F072F833
:10129C00134801F063FC00F07BF94FF47A724FF4C1
:1012AC00FA61104800F042FA0A22FA210E4800F0C6
:1012BC003DFA0A22FA210D4800F038FA0A22FA21E6
:1012CC000B4800F033FA0A22FA210A4800F02EFAF1
:1012DC0000220A21084800F029FA00F0DDF9FCE7A9
:1012EC00BC00002075120008E50B00084D01000839
:1012FC00A90A0008590900089503000880B590B0A8
:10130C0000AF07F1180328220021184601F0D6FF80
:10131C003B1D00221A605A609A60DA601A6102233F
:10132C00BB610123BB621023FB6200237B6307F1CB
:10133C001803184600F0E6FF0346002B01D000F01E
:10134C00E1F80F237B600023BB600023FB600023CC
:10135C003B6100237B613B1D0021184601F052FAD2
:10136C000346002B01D000F0CDF800BF4037BD463E
:10137C0080BD000080B586B000AF07F108030022E5
:10138C001A605A609A60DA603B4600221A605A6012
:10139C001D4B4FF080421A601B4B41F63F725A6056
:1013AC00194B00229A60184B0922DA60164B002266
:1013BC001A61154B00229A61134801F07FFB03461A
:1013CC00002B01D000F09EF84FF48053BB6007F166
:1013DC00080319460C4801F0FDFC0346002B01D014
:1013EC0000F090F800233B6000237B603B461946DD
:1013FC00054801F0D5FE0346002B01D000F082F821
:10140C0000BF1837BD4680BDBC00002080B588B039
:10141C0000AF07F1100300221A605A609A60DA607C
:10142C002F4B9B692E4A43F0100393612C4B9B6905
:10143C0003F01003FB60FB68294B9B69284A43F0BF
:10144C0004039361264B9B6903F00403BB60BB68E8
:10145C00234B9B69224A43F008039361204B9B6901
:10146C0003F008037B607B6800224FF620411D4887
:10147C0000F017FF002240F2FF711B4800F011FF33
:10148C004FF460433B6100237B610123BB6107F197
:10149C0010031946154800F073FD4FF620433B61CD
:1014AC0001237B610023BB610223FB6107F1100365
:1014BC0019460C4800F064FD40F2FF733B610123B8
:1014CC007B610023BB610223FB6107F1100319460A
:1014DC00054800F055FD00BF2037BD4680BD00BF5C
:1014EC000010024000080140000C014000100140B7
:1014FC0080B582B000AF786000F060F800BF0837AC
:10150C00BD4680BD80B400AF72B600BFFEE70000E0
:10151C0080B483B000AF0346FB71FB79092B30D844
:10152C00FA791A4913469B0013449B000B44002282
:10153C001A60FA79154913469B0013449B000B441F
:10154C00043300221A60FA79104913469B001344A5
:10155C009B000B44083300221A60FA790B4913469E
:10156C009B0013449B000B440C3300221A70FA7935
:10157C00064913469B0013449B000B441033002276
:10158C001A6000BF0C37BD4680BC704704010020B8
:10159C0080B582B000AF0023FB7106E0FB791846E2
:1015AC00FFF7B6FFFB790133FB71FB79092BF5D9FA
:1015BC0000BF00BF0837BD4680BD000080B483B0BB
:1015CC0000AF0023FB715CE0FA79324913469B00B3
:1015DC0013449B000B441B68002B4FD0FA792D4908
:1015EC0013469B0013449B000B4404331B68002BD5
:1015FC0032D1FA79274913469B0013449B000B44C4
:10160C000C331B78FA790133D8B2224913469B006C
:10161C0013449B000B440C3302461A70FA791D4993
:10162C0013469B0013449B000B4408331B68002B90
:10163C0024D0F979FA7917480B469B000B449B0090
:10164C00034408331968134813469B0013449B004A
:10165C0003440433196011E0FA790E4913469B00D8
:10166C0013449B000B4404331B68591E0948134652
:10167C009B0013449B00034404331960FB79013332
:10168C00FB71FB79092B9FD900BF00BF0C37BD46FE
:10169C0080BC70470401002080B582B000AF0023ED
:1016AC00FB7139E0FA79204913469B0013449B00E7
:1016BC000B440C331B78002B2BD0FA791A491346A8
:1016CC009B0013449B000B441B689847FA791649FE
:1016DC0013469B0013449B000B440C331B78013BBB
:1016EC00D8B2114913469B0013449B000B440C3396
:1016FC0002461A70FA790C4913469B0013449B005E
:10170C000B4408331B68002B03D1FB791846FFF7F9
:10171C00FFFEFB790133FB71FB79092BC2D900BFAA
:10172C0000BF0837BD4680BD0401002080B487B0DF
:10173C0000AFF860B9607A600023FB7502E0FB7DB6
:10174C000133FB75FA7D264913469B0013449B001D
:10175C000B441B68002B02D0FB7D092BEFD9FB7DC2
:10176C00092B38D8FA7D1E4913469B0013449B0065
:10177C000B44FA681A60FA7DBB681A49A1FB031383
:10178C00D908174813469B0013449B0003440433A9
:10179C001960FA7D7B681349A1FB0313D908104823
:1017AC0013469B0013449B00034408331960FA7DD5
:1017BC000B4913469B0013449B000B440C33002233
:1017CC001A70FA7DF97D064813469B0013449B0062
:1017DC0003441033196000BF1C37BD4680BC7047F2
:1017EC0004010020CDCCCCCC80B582B000AF00235E
:1017FC00FB711CE0FA79124913469B0013449B00C1
:10180C000B4408331B68002B0ED1FA790C49134694
:10181C009B0013449B000B4404331B68002B03D028
:10182C00FB791846FFF774FEFB790133FB71FB79EA
:10183C00092BDFD900BF00BF0837BD4680BD00BFF4
:10184C000401002080B485B000AF154B9B69144A8D
:10185C0043F001039361124B9B6903F00103BB60DE
:10186C00BB680F4BDB690E4A43F08053D3610C4BC2
:10187C00DB6903F080537B607B680A4B5B68FB6021
:10188C00FB6823F0E063FB60FB6843F08063FB6064
:10189C00044AFB68536000BF1437BD4680BC7047D8
:1018AC00001002400000014080B584B000AF7860A9
:1018BC007B681B68B3F1804F13D10C4BDB690B4A6F
:1018CC0043F00103D361094BDB6903F00103FB60B7
:1018DC00FB68002200211C2000F01BFB1C2000F0E8
:1018EC0034FB00BF1037BD4680BD00BF0010024066
:1018FC0080B400AFFEE780B400AFFEE780B400AF69
:10190C00FEE780B400AFFEE780B400AFFEE780B422
:10191C0000AF00BFBD4680BC704780B400AF00BFB5
:10192C00BD4680BC704780B400AF00BFBD4680BCD4
:10193C00704780B500AF00F0F9F900BF80BD000022
:10194C0080B500AF024801F055F900BF80BD00BF63
:10195C00BC00002080B400AF00BFBD4680BC704707
:10196C0080B500AF01224FF48061114800F099FC62
:10197C0001224FF480510E4800F093FC01224FF4E9
:10198C0000610B4800F08DFC01224FF40051084817
:10199C0000F087FC01224FF40041054800F081FC67
:1019AC0001224FF48041024800F07BFC00BF80BD57
:1019BC000008014080B500AF00224FF4806111484F
:1019CC0000F06FFC01224FF480510E4800F069FCCE
:1019DC0001224FF400610B4800F063FC01224FF42C
:1019EC000051084800F05DFC01224FF4004105480D
:1019FC0000F057FC00224FF48041024800F051FCEB
:101A0C0000BF80BD0008014080B500AF00224FF43C
:101A1C008061114800F045FC01224FF480510E48C2
:101A2C0000F03FFC01224FF400610B4800F039FC40
:101A3C0001224FF40051084800F033FC00224FF40F
:101A4C000041054800F02DFC01224FF48041024872
:101A5C0000F027FC00BF80BD0008014080B500AF3E
:101A6C0001224FF48061114800F01BFC01224FF45D
:101A7C0080510E4800F015FC00224FF400610B4819
:101A8C0000F00FFC00224FF40051084800F009FC54
:101A9C0001224FF40041054800F003FC01224FF4F1
:101AAC008041024800F0FDFB00BF80BD00080140F2
:101ABC0080B500AF01224FF48061114800F0F1FBBA
:101ACC0000224FF480510E4800F0EBFB01224FF442
:101ADC0000610B4800F0E5FB00224FF40051084870
:101AEC0000F0DFFB01224FF40041054800F0D9FB68
:101AFC0001224FF48041024800F0D3FB00BF80BDAF
:101B0C000008014080B500AF00224FF480611148FD
:101B1C0000F0C7FB01224FF480510E4800F0C1FBCE
:101B2C0001224FF400610B4800F0BBFB00224FF484
:101B3C000051084800F0B5FB01224FF40041054864
:101B4C0000F0AFFB01224FF48041024800F0A9FBEA
:101B5C0000BF80BD0008014080B500AF01224FF4EA
:101B6C008061114800F09DFB01224FF480510E481A
:101B7C0000F097FB00224FF400610B4800F091FB42
:101B8C0001224FF40051084800F08BFB01224FF466
:101B9C000041054800F085FB00224FF480410248CB
:101BAC0000F07FFB00BF80BD0008014080B500AF96
:101BBC0001224FF48061114800F073FB00224FF4B6
:101BCC0080510E4800F06DFB01224FF400610B4870
:101BDC0000F067FB01224FF40051084800F061FB54
:101BEC0000224FF40041054800F05BFB01224FF44A
:101BFC008041024800F055FB00BF80BD0008014049
:101C0C0080B500AF01224FF48061114800F049FB10
:101C1C0001224FF480510E4800F043FB01224FF497
:101C2C0000610B4800F03DFB01224FF400510848C5
:101C3C0000F037FB01224FF40041054800F031FB66
:101C4C0001224FF48041024800F02BFB00BF80BD05
:101C5C0000080140FFF77EFE0B480C490C4A00239C
:101C6C0002E0D458C4500433C4188C42F9D3094A46
:101C7C00094C002301E013600432A242FBD301F0B3
:101C8C00F9FAFFF7FBFA7047000000206000002013
:101C9C001C33000860000020D0010020FEE700008B
:101CAC0080B500AF084B1B68074A43F01003136064
:101CBC00032000F023F90F2000F008F8FFF7C2FD15
:101CCC000023184680BD00BF0020024080B582B0C2
:101CDC0000AF7860124B1A68124B1B7819464FF400
:101CEC007A73B3FBF1F3B2FBF3F3184600F03BF954
:101CFC000346002B01D001230EE07B680F2B0AD882
:101D0C00002279684FF0FF3000F003F9064A7B6837
:101D1C001360002300E0012318460837BD4680BD40
:101D2C00540000205C0000205800002080B400AF5C
:101D3C00054B1B781A46054B1B681344034A13606A
:101D4C0000BFBD4680BC70475C000020CC01002069
:101D5C0080B400AF024B1B681846BD4680BC704770
:101D6C00CC01002080B485B000AF78607B6803F0B4
:101D7C000703FB600C4BDB68BB60BA684FF6FF03D4
:101D8C001340BB60FB681A02BB68134343F0BF638C
:101D9C0043F40033BB60044ABB68D36000BF143704
:101DAC00BD4680BC704700BF00ED00E080B400AFC2
:101DBC00044BDB681B0A03F007031846BD4680BCC6
:101DCC00704700BF00ED00E080B483B000AF034665
:101DDC00FB7197F90730002B0BDBFB7903F01F022B
:101DEC00064997F907305B09012000FA02F241F825
:101DFC00232000BF0C37BD4680BC704700E100E0DB
:101E0C0080B483B000AF03463960FB7197F907309B
:101E1C00002B0ADB3B68DAB20C4997F90730120148
:101E2C00D2B20B4483F800230AE03B68DAB20849CB
:101E3C00FB7903F00F03043B1201D2B20B441A7668
:101E4C0000BF0C37BD4680BC704700BF00E100E00E
:101E5C0000ED00E080B489B000AFF860B9607A6042
:101E6C00FB6803F00703FB61FB69C3F10703042B59
:101E7C0028BF0423BB61FB690433062B02D9FB6921
:101E8C00033B00E000237B614FF0FF32BB6902FA99
:101E9C0003F3DA43BB681A407B699A404FF0FF3179
:101EAC007B6901FA03F3D9437B680B401343184653
:101EBC002437BD4680BC704780B582B000AF7860D7
:101ECC007B68013BB3F1807F01D301230FE00A4A09
:101EDC007B68013B53600F214FF0FF30FFF790FF01
:101EEC00054B00229A60044B07221A600023184607
:101EFC000837BD4680BD00BF10E000E080B582B061
:101F0C0000AF78607868FFF72DFF00BF0837BD463B
:101F1C0080BD80B586B000AF0346B9607A60FB73B4
:101F2C0000237B61FFF742FF78617A68B9687869B2
:101F3C00FFF790FF024697F90F3011461846FFF74E
:101F4C005FFF00BF1837BD4680BD80B582B000AFC3
:101F5C000346FB7197F907301846FFF735FF00BFB2
:101F6C000837BD4680BD80B582B000AF7860786818
:101F7C00FFF7A2FF034618460837BD4680BD000098
:101F8C0080B48BB000AF7860396000237B62002393
:101F9C003B6248E101227B6A02FA03F3FB613B6876
:101FAC001B68FA691340BB61BA69FB699A4240F03D
:101FBC0037813B685B68A34A93425ED0A14A934247
:101FCC0075D8A14A934258D09F4A93426FD89F4AE2
:101FDC00934252D09D4A934269D89D4A93424CD029
:101FEC009B4A934263D89B4A934246D0994A934268
:101FFC005DD8122B2AD8122B59D801A252F823F0F3
:10200C00872000086120000873200008B520000814
:10201C00BB200008BB200008BB200008BB20000828
:10202C00BB200008BB200008BB200008BB20000818
:10203C00BB200008BB200008BB200008BB20000808
:10204C00BB200008692000087D200008824A9342CA
:10205C0013D02CE03B68DB683B6229E03B68DB6813
:10206C0004333B6224E03B68DB6808333B621FE0CF
:10207C003B68DB680C333B621AE03B689B68002BC7
:10208C0002D104233B6213E03B689B68012B05D112
:10209C0008233B627B68FA691A6109E008233B62FA
:1020AC007B68FA695A6103E000233B6200E000BFE1
:1020BC00BB69FF2B01D87B6801E07B6804337B6133
:1020CC00BB69FF2B02D87B6A9B0002E07B6A083B52
:1020DC009B003B617B691A680F213B6901FA03F392
:1020EC00DB431A40396A3B6901FA03F31A437B69F3
:1020FC001A603B685B6803F08053002B00F0908003
:10210C00564B9B69554A43F001039361534B9B69B2
:10211C0003F00103BB60BB68514A7B6A9B08023326
:10212C0052F82330FB607B6A03F003039B000F2201
:10213C0002FA03F3DB43FA681340FB607B68494AFD
:10214C0093420DD07B68484A934207D07B68474A3C
:10215C00934201D1022304E0032302E0012300E0B7
:10216C0000237A6A02F0030292009340FA68134348
:10217C00FB603B497B6A9B080233FA6841F82320D9
:10218C003B685B6803F48013002B06D0384B9A68CD
:10219C003749BB6913438B6006E0354B9A68BB69C2
:1021AC00DB43334913408B603B685B6803F40013DB
:1021BC00002B06D02E4BDA682D49BB691343CB603C
:1021CC0006E02B4BDA68BB69DB4329491340CB6033
:1021DC003B685B6803F40033002B06D0244B5A6831
:1021EC002349BB6913434B6006E0214B5A68BB691A
:1021FC00DB431F4913404B603B685B6803F480333F
:10220C00002B06D01A4B1A681949BB6913430B6093
:10221C0006E0174B1A68BB69DB43154913400B608A
:10222C007B6A01337B623B681A687B6A22FA03F390
:10223C00002B7FF4AFAE00BF00BF2C37BD4680BC77
:10224C00704700BF00003210000031100000221057
:10225C0000002110000012100000111000100240AC
:10226C000000014000080140000C0140001001403A
:10227C000004014080B485B000AF78600B467B80D1
:10228C007B689A687B881340002B02D00123FB7378
:10229C0001E00023FB73FB7B18461437BD4680BC62
:1022AC00704780B483B000AF78600B467B801346D8
:1022BC007B707B78002B03D07A887B681A6103E0F3
:1022CC007B881A047B681A6100BF0C37BD4680BC42
:1022DC00704780B485B000AF78600B467B807B681C
:1022EC00DB68FB607A88FB6813401A04FB68D943EF
:1022FC007B880B401A437B681A6100BF1437BD46BC
:10230C0080BC704780B586B000AF78607B68002BCE
:10231C0001D101236CE27B681B6803F00103002BE5
:10232C0000F08780924B5B6803F00C03042B0CD0FD
:10233C008F4B5B6803F00C03082B12D18C4B5B6842
:10234C0003F48033B3F5803F0BD1894B1B6803F446
:10235C000033002B6CD07B685B68002B68D10123A9
:10236C0046E27B685B68B3F5803F06D1804B1B6807
:10237C007F4A43F4803313602EE07B685B68002B4C
:10238C000CD17B4B1B687A4A23F480331360784B57
:10239C001B68774A23F4802313601DE07B685B681D
:1023AC00B3F5A02F0CD1724B1B68714A43F48023F8
:1023BC0013606F4B1B686E4A43F4803313600BE061
:1023CC006B4B1B686A4A23F480331360684B1B68A1
:1023DC00674A23F4802313607B685B68002B13D05F
:1023EC00FFF7B6FC386108E0FFF7B2FC02463B6928
:1023FC00D31A642B01D90323FAE15D4B1B6803F458
:10240C000033002BF0D014E0FFF7A2FC386108E099
:10241C00FFF79EFC02463B69D31A642B01D90323B8
:10242C00E6E1534B1B6803F40033002BF0D100E0C2
:10243C0000BF7B681B6803F00203002B63D04C4B7E
:10244C005B6803F00C03002B0BD0494B5B6803F06B
:10245C000C03082B1CD1464B5B6803F48033002B18
:10246C0016D1434B1B6803F00203002B05D07B688D
:10247C001B69012B01D00123BAE13D4B1B6823F0F2
:10248C00F8027B685B69DB00394913430B603AE067
:10249C007B681B69002B20D0364B01221A60FFF79A
:1024AC0057FC386108E0FFF753FC02463B69D31A2E
:1024BC00022B01D903239BE12D4B1B6803F0020374
:1024CC00002BF0D02A4B1B6823F0F8027B685B6969
:1024DC00DB00274913430B6015E0264B00221A60E2
:1024EC00FFF736FC386108E0FFF732FC02463B6927
:1024FC00D31A022B01D903237AE11D4B1B6803F07D
:10250C000203002BF0D17B681B6803F00803002B3F
:10251C003AD07B689B69002B19D0174B01221A60AB
:10252C00FFF716FC386108E0FFF712FC02463B6926
:10253C00D31A022B01D903235AE10D4B5B6A03F02A
:10254C000203002BF0D0012000F09AFA1CE00A4B99
:10255C0000221A60FFF7FCFB38610FE0FFF7F8FB75
:10256C0002463B69D31A022B08D9032340E100BF72
:10257C000010024000004242800442429E4B5B6AC3
:10258C0003F00203002BE9D17B681B6803F0040302
:10259C00002B00F0A6800023FB75974BDB6903F042
:1025AC008053002B0DD1944BDB69934A43F080533D
:1025BC00D361914BDB6903F08053BB60BB68012393
:1025CC00FB758E4B1B6803F48073002B18D18B4B5F
:1025DC001B688A4A43F480731360FFF7B9FB3861B8
:1025EC0008E0FFF7B5FB02463B69D31A642B01D90F
:1025FC000323FDE0814B1B6803F48073002BF0D0A8
:10260C007B68DB68012B06D17B4B1B6A7A4A43F053
:10261C00010313622DE07B68DB68002B0CD1764B39
:10262C001B6A754A23F001031362734B1B6A724ACF
:10263C0023F0040313621CE07B68DB68052B0CD1D0
:10264C006D4B1B6A6C4A43F0040313626A4B1B6AA2
:10265C00694A43F0010313620BE0674B1B6A664A3D
:10266C0023F001031362644B1B6A634A23F00403D7
:10267C0013627B68DB68002B15D0FFF769FB3861B0
:10268C000AE0FFF765FB02463B69D31A41F2883238
:10269C00934201D90323ABE0574B1B6A03F00203AF
:1026AC00002BEED014E0FFF753FB38610AE0FFF784
:1026BC004FFB02463B69D31A41F28832934201D94F
:1026CC00032395E04C4B1B6A03F00203002BEED165
:1026DC00FB7D012B05D1484BDB69474A23F0805326
:1026EC00D3617B68DB69002B00F08180424B5B6817
:1026FC0003F00C03082B61D07B68DB69022B46D1FD
:10270C003F4B00221A60FFF723FB386108E0FFF70C
:10271C001FFB02463B69D31A022B01D9032367E046
:10272C00354B1B6803F00073002BF0D17B681B6AE0
:10273C00B3F5803F08D1304B5B6823F400327B68E3
:10274C009B682D4913434B602B4B5B6823F474122D
:10275C007B68196A7B685B6A0B43274913434B60A0
:10276C00274B01221A60FFF7F3FA386108E0FFF7F4
:10277C00EFFA02463B69D31A022B01D9032337E047
:10278C001D4B1B6803F00073002BF0D02FE01C4B8B
:10279C0000221A60FFF7DCFA386108E0FFF7D8FA7C
:1027AC0002463B69D31A022B01D9032320E0124BBA
:1027BC001B6803F00073002BF0D118E07B68DB6919
:1027CC00012B01D1012313E00B4B5B68FB60FB6811
:1027DC0003F480327B681B6A9A4206D1FB6803F4CF
:1027EC0070127B685B6A9A4201D0012300E00023DF
:1027FC0018461837BD4680BD0010024000700040DE
:10280C006000424280B584B000AF786039607B686C
:10281C00002B01D10123D0E06A4B1B6803F00703A6
:10282C003A689A4210D9674B1B6823F00702654936
:10283C003B6813430B60634B1B6803F007033A6858
:10284C009A4201D00123B8E07B681B6803F00203B5
:10285C00002B20D07B681B6803F00403002B05D0F1
:10286C00594B5B68584A43F4E06353607B681B68C0
:10287C0003F00803002B05D0534B5B68524A43F41A
:10288C0060535360504B5B6823F0F0027B689B688D
:10289C004D4913434B607B681B6803F00103002B0D
:1028AC0040D07B685B68012B07D1474B1B6803F456
:1028BC000033002B15D101237FE07B685B68022B72
:1028CC0007D1414B1B6803F00073002B09D1012386
:1028DC0073E03D4B1B6803F00203002B01D1012375
:1028EC006BE0394B5B6823F003027B685B6836490D
:1028FC0013434B60FFF72CFAF8600AE0FFF728FA55
:10290C000246FB68D31A41F28832934201D9032361
:10291C0053E02D4B5B6803F00C027B685B689B00FB
:10292C009A42EBD1274B1B6803F007033A689A4293
:10293C0010D2244B1B6823F0070222493B68134337
:10294C000B60204B1B6803F007033A689A4201D0D6
:10295C00012332E07B681B6803F00403002B08D0D2
:10296C00194B5B6823F4E0627B68DB681649134300
:10297C004B607B681B6803F00803002B09D0124BDB
:10298C005B6823F460527B681B69DB000E491343C0
:10299C004B6000F021F802460B4B5B681B0903F0FF
:1029AC000F030A49CB5C22FA03F3094A1360094B63
:1029BC001B681846FFF78AF9002318461037BD46E6
:1029CC0080BD00BF0020024000100240F032000821
:1029DC00540000205800002080B487B000AF0023C2
:1029EC00FB600023BB6000237B6100237B60002322
:1029FC003B611E4B5B68FB60FB6803F00C03042B14
:102A0C0002D0082B03D027E0194B3B6127E0FB6871
:102A1C009B0C03F00F03174AD35C7B60FB6803F439
:102A2C008033002B10D0114B5B685B0C03F001035F
:102A3C00114AD35CBB607B680D4A02FB03F2BB6896
:102A4C00B2FBF3F37B6104E07B680C4A02FB03F3FB
:102A5C007B617B693B6102E0054B3B6100BF3B69DD
:102A6C0018461C37BD4680BC704700BF00100240A2
:102A7C0000127A00003300081033000800093D00F2
:102A8C0080B485B000AF78600A4B1B680A4AA2FB81
:102A9C0003235B0A7A6802FB03F3FB6000BFFB684D
:102AAC005A1EFA60002BF9D100BF00BF1437BD4687
:102ABC0080BC704754000020D34D621080B582B0AA
:102ACC0000AF78607B68002B01D1012341E07B686B
:102ADC0093F83D30DBB2002B06D17B68002283F8E3
:102AEC003C207868FEF7E0FE7B68022283F83D20EC
:102AFC007B681A687B6804331946104600F056FA56
:102B0C007B68012283F846207B68012283F83E20F3
:102B1C007B68012283F83F207B68012283F84020E8
:102B2C007B68012283F841207B68012283F84220D4
:102B3C007B68012283F843207B68012283F84420C0
:102B4C007B68012283F845207B68012283F83D20B5
:102B5C00002318460837BD4680BD000080B485B000
:102B6C0000AF78607B6893F83D30DBB2012B01D06D
:102B7C00012335E07B68022283F83D207B681B68CB
:102B8C00DA687B681B6842F00102DA607B681B68BC
:102B9C00164A934209D07B681B68B3F1804F04D06E
:102BAC007B681B68124A934211D17B681B689B6837
:102BBC0003F00703FB60FB68062B10D07B681B68D7
:102BCC001A687B681B6842F001021A6007E07B6898
:102BDC001B681A687B681B6842F001021A600023AC
:102BEC0018461437BD4680BC704700BF002C01400E
:102BFC000004004080B584B000AF78607B681B682F
:102C0C00DB68FB607B681B681B69BB60BB6803F0FF
:102C1C000203002B20D0FB6803F00203002B1BD017
:102C2C007B681B686FF002021A617B6801221A77BD
:102C3C007B681B689B6903F00303002B03D0786847
:102C4C0000F098F905E0786800F08BF9786800F0EE
:102C5C009AF97B6800221A77BB6803F00403002BF7
:102C6C0020D0FB6803F00403002B1BD07B681B688F
:102C7C006FF004021A617B6802221A777B681B686A
:102C8C009B6903F44073002B03D0786800F072F951
:102C9C0005E0786800F065F9786800F074F97B68F5
:102CAC0000221A77BB6803F00803002B20D0FB68C6
:102CBC0003F00803002B1BD07B681B686FF0080225
:102CCC001A617B6804221A777B681B68DB6903F046
:102CDC000303002B03D0786800F04CF905E078680A
:102CEC0000F03FF9786800F04EF97B6800221A7703
:102CFC00BB6803F01003002B20D0FB6803F010031B
:102D0C00002B1BD07B681B686FF010021A617B686C
:102D1C0008221A777B681B68DB6903F44073002B6D
:102D2C0003D0786800F026F905E0786800F019F90E
:102D3C00786800F028F97B6800221A77BB6803F0EA
:102D4C000103002B0CD0FB6803F00103002B07D010
:102D5C007B681B686FF001021A617868FEF7C8FB8C
:102D6C00BB6803F08003002B0CD0FB6803F08003DE
:102D7C00002B07D07B681B686FF080021A617868A3
:102D8C0000F06FFABB6803F04003002B0CD0FB681B
:102D9C0003F04003002B07D07B681B686FF04002E8
:102DAC001A61786800F0F8F8BB6803F02003002B78
:102DBC000CD0FB6803F02003002B07D07B681B684A
:102DCC006FF020021A61786800F042FA00BF1037E9
:102DDC00BD4680BD80B584B000AF786039600023FB
:102DEC00FB737B6893F83C30012B01D10223B4E0D8
:102DFC007B68012283F83C207B68022283F83D200B
:102E0C007B681B689B68BB60BB6823F07703BB6067
:102E1C00BB6823F47F43BB607B681B68BA689A600D
:102E2C003B681B68B3F5005F3ED0B3F5005F00F262
:102E3C008780B3F5805F00F08680B3F5805F7FD824
:102E4C00702B1AD0702B7BD8602B50D0602B77D87E
:102E5C00502B3CD0502B73D8402B58D0402B6FD8D4
:102E6C00302B64D0302B6BD8202B60D0202B67D824
:102E7C00002B5CD0102B5AD062E07B6818683B6842
:102E8C0099683B685A683B68DB6800F06AF97B68B4
:102E9C001B689B68BB60BB6843F07703BB607B68B7
:102EAC001B68BA689A604FE07B6818683B68996841
:102EBC003B685A683B68DB6800F053F97B681B6819
:102ECC009A687B681B6842F480429A603CE07B689D
:102EDC0018683B6859683B68DB681A4600F0CAF80A
:102EEC007B681B685021184600F021F92CE07B68A8
:102EFC0018683B6859683B68DB681A4600F0E8F8CC
:102F0C007B681B686021184600F011F91CE07B6897
:102F1C0018683B6859683B68DB681A4600F0AAF8E9
:102F2C007B681B684021184600F001F90CE07B68B7
:102F3C001A683B681B681946104600F0F8F803E065
:102F4C000123FB7300E000BF7B68012283F83D2066
:102F5C007B68002283F83C20FB7B18461037BD466B
:102F6C0080BD80B483B000AF786000BF0C37BD4625
:102F7C0080BC704780B483B000AF786000BF0C3762
:102F8C00BD4680BC704780B483B000AF786000BF92
:102F9C000C37BD4680BC704780B483B000AF7860FE
:102FAC0000BF0C37BD4680BC7047000080B485B0B4
:102FBC0000AF786039607B681B68FB607B682B4ACC
:102FCC00934207D07B68B3F1804F03D07B68284ACB
:102FDC00934208D1FB6823F07003FB603B685B688D
:102FEC00FA681343FB607B68204A934207D07B68E6
:102FFC00B3F1804F03D07B681D4A934208D1FB6824
:10300C0023F44073FB603B68DB68FA681343FB6096
:10301C00FB6823F080023B685B691343FB607B68B1
:10302C00FA681A603B689A687B68DA623B681A68CF
:10303C007B689A627B680D4A934203D13B681A699C
:10304C007B681A637B6801225A617B681B6903F0F9
:10305C000103002B05D07B681B6923F001027B6800
:10306C001A6100BF1437BD4680BC7047002C01406C
:10307C000004004080B487B000AFF860B9607A609B
:10308C00FB681B6A7B61FB681B6A23F00102FB680F
:10309C001A62FB689B693B613B6923F0F0033B615F
:1030AC007B681B013A6913433B617B6923F00A037C
:1030BC007B617A69BB6813437B61FB683A699A61EF
:1030CC00FB687A691A6200BF1C37BD4680BC70472A
:1030DC0080B487B000AFF860B9607A60FB681B6A97
:1030EC007B61FB681B6A23F01002FB681A62FB68A9
:1030FC009B693B613B6923F470433B617B681B0319
:10310C003A6913433B617B6923F0A0037B61BB6885
:10311C001B017A6913437B61FB683A699A61FB680E
:10312C007A691A6200BF1C37BD4680BC704780B4F8
:10313C0085B000AF786039607B689B68FB60FB688A
:10314C0023F07003FB603A68FB68134343F00703FA
:10315C00FB607B68FA689A6000BF1437BD4680BC80
:10316C00704780B487B000AFF860B9607A603B609C
:10317C00FB689B687B617B6923F47F437B613B68C5
:10318C001A027B681A43BB6813437A6913437B6149
:10319C00FB687A699A6000BF1C37BD4680BC7047DB
:1031AC0080B485B000AF786039607B6893F83C30B0
:1031BC00012B01D1022341E07B68012283F83C20E2
:1031CC007B68022283F83D207B681B685B68FB6090
:1031DC007B681B689B68BB60FB6823F07003FB601B
:1031EC003B681B68FA681343FB607B681B68FA68D2
:1031FC005A607B681B68144A934209D07B681B6831
:10320C00B3F1804F04D07B681B68104A93420CD1F9
:10321C00BB6823F08003BB603B685B68BA681343F0
:10322C00BB607B681B68BA689A607B68012283F874
:10323C003D207B68002283F83C200023184614377D
:10324C00BD4680BC704700BF002C0140000400400C
:10325C0080B483B000AF786000BF0C37BD4680BC33
:10326C00704780B483B000AF786000BF0C37BD46A8
:10327C0080BC704770B500260C4D0D4C641BA4101F
:10328C00A64209D100F022F800260A4D0A4C641B14
:10329C00A410A64205D170BD55F8043B98470136E1
:1032AC00EEE755F8043B98470136F2E71433000873
:1032BC001433000814330008183300080346024482
:1032CC00934200D1704703F8011BF9E7F8B500BF32
:1032DC00F8BC08BC9E467047F8B500BFF8BC08BCEB
:0432EC009E46704743
:1032F00000000000000000000102030406070809A6
:1033000002030405060708090A0B0C0D0E0F101026
:0433100001020000B6
:04331400310100087B
:043318000D0100089B
:10331C00010000000100000001000000010000009D
:10332C00010000000100000001000000010000008D
:10333C00010000000100000001000000010000007D
:10334C006400000064000000640000000500000040
:10335C000800000003000000050000000800000049
:10336C000300000000127A001000000001000000B1
:0400000508001C6172
:00000001FF
