:020000040800F2
:10000000002800200D1A0008A9160008AF160008E5
:10001000B5160008BB160008C11600080000000055
:10002000000000000000000000000000C7160008EB
:10003000D316000800000000DF160008EB160008C9
:10004000551A0008551A0008551A0008551A0008D4
:10005000551A0008551A0008551A0008551A0008C4
:10006000551A0008551A0008551A0008551A0008B4
:10007000551A0008551A0008551A0008551A0008A4
:10008000551A0008551A0008551A0008551A000894
:10009000551A0008551A0008551A0008551A000884
:1000A000551A0008551A0008551A0008551A000874
:1000B000F9160008551A000800000000551A00083B
:1000C000551A00080000000000000000551A000842
:1000D00000000000551A0008551A00080000000032
:1000E000551A0008551A0008551A000800000000AB
:1000F0000000000000000000000000000000000000
:0C01000000000000000000005FF808F1A3
:10010C0010B5054C237833B9044B13B10448AFF345
:10011C0000800123237010BD60000020000000004F
:10012C008430000808B5034B1BB103490348AFF3F7
:10013C00008008BD0000000064000020843000082E
:10014C0080B582B000AF00237B6068E0384A7B68E2
:10015C0052F8232037497B6841F82320364A7B68C4
:10016C0052F8232032497B6841F82320786800F04C
:10017C008DF8024630497B6841F823202D4A7B6874
:10018C0052F823202A497B6851F823309A4243D1F4
:10019C00274A7B6852F8232027497B6851F8233083
:1001AC009A4239D1254A7B6852F8232022497B6830
:1001BC0051F823309A421BD01F4A7B6852F82320F7
:1001CC001E497B6841F823201B4A7B6852F8233078
:1001DC00002B21D11A4A7B6852F8232019497B68DD
:1001EC0041F82320184A7B68012142F8231013E0C0
:1001FC00144A7B6852F823305A1E12497B6841F826
:10020C002320104A7B6852F82330002B04D10B4A70
:10021C007B68012142F823107B6801337B607B688B
:10022C00022B93DD00BF00BF0837BD4680BD00BF69
:10023C000C000020000000201800002024000020EA
:10024C0030000020880000209400002080B483B08F
:10025C0000AF78607B68022B0EDC0B4A7B6852F88F
:10026C002330012B06D1084A7B68002142F8231069
:10027C00012303E0002301E04FF0FF3318460C3755
:10028C00BD4680BC704700BF9400002080B582B092
:10029C0000AF78607B68022B21DC7B68022B17D0C7
:1002AC007B68022B1DDC7B68002B03D07B68012B49
:1002BC0007D016E04FF400510D4801F0B1FE034693
:1002CC0012E04FF480410A4801F0AAFE03460BE00D
:1002DC004FF40041064801F0A3FE034604E000BFC2
:1002EC0000E000BF4FF0FF3318460837BD4680BD15
:1002FC000010014080B483B000AF786039607B6837
:10030C00002B02D1064A3B6813607B68012B02D19B
:10031C00044A3B68136000BF0C37BD4680BC704775
:10032C00B4000020B000002080B483B000AF78602F
:10033C007B68002B02D1084B1B6807E07B68012B04
:10034C0002D1064B1B6801E04FF0FF3318460C3707
:10035C00BD4680BC704700BFB4000020B000002038
:10036C0098B500AF9E4B1B68013B0C2B00F29181A2
:10037C0001A252F823F000BFB90300089F06000841
:10038C009F0600089F0600089F0600089F060008AD
:10039C009F0600089F0600089F060008FF03000840
:1003AC00A70400084F050008F905000801F0AEF994
:1003BC0040F2E241012001F0A7F8FA21022001F0FD
:1003CC00A3F800F0C5FA0346864A136000F0B6FAAB
:1003DC000346854A1360824B0A221A6000F0B8FA71
:1003EC00044600F0ABFA03461946204600F006FF1F
:1003FC0058E101F0B5F9012001F0DAF80346012BC0
:10040C002FD14FF47A71012001F07EF8754B1B68E7
:10041C00013B744A1360744B1B68013B724A1360B6
:10042C00704B1B68704A12681146184600F0E6FEC5
:10043C006D4B1B68002B14D1694B0B221A6000F01A
:10044C0091FA0346684A136000F08CFA0346654A39
:10045C001360644B1B68644A12681146184600F01E
:10046C00CDFE022001F0A4F80346002B05D0FA21A2
:10047C00022001F049F800F0ABFE0020FFF7E6FE89
:10048C000346002B00F00781554B06221A6042F2FE
:10049C001071012001F038F8FDE001F08BF901201A
:1004AC0001F086F80346012B2FD14FF47A7101200D
:1004BC0001F02AF84B4B1B68013B4A4A13604A4B2C
:1004CC001B68013B484A1360464B1B68464A12683E
:1004DC001146184600F092FE434B1B68002B14D1BA
:1004EC003F4B0C221A6000F029FA03463D4A136078
:1004FC0000F02EFA03463C4A13603A4B1B683A4A0A
:10050C0012681146184600F079FE022001F050F8EE
:10051C000346002B05D0FA21022000F0F5FF00F075
:10052C0057FE0020FFF792FE0346002B00F0B5802B
:10053C0042F21071012000F0E7FF294B07221A60EC
:10054C00ABE001F061F9012001F032F80346012B18
:10055C002AD14FF47A71012000F0D6FF214B1B6891
:10056C00013B204A1360204B1B68013B1E4A136061
:10057C001C4B1B681C4A12681146184600F03EFEC4
:10058C00184B1B68002B0FD1154B0D221A6000F075
:10059C00E9F90346134A1360124B1B68124A12689E
:1005AC001146184600F02AFE022001F001F803461D
:1005BC00002B05D0FA21022000F0A6FF00F008FE67
:1005CC000020FFF743FE0346002B68D042F2107167
:1005DC00012000F099FF024B08221A605FE000BF77
:1005EC0080000020B4000020B000002001F036F99B
:1005FC00012000F0DDFF0346012B2FD14FF47A715F
:10060C00012000F081FF284B1B68013B264A136038
:10061C00264B1B68013B254A1360234B1B68234A5E
:10062C0012681146184600F0E9FD1F4B1B68002BA1
:10063C0014D11F4B0A221A6000F080F903461B4AA2
:10064C00136000F085F90346174A1360164B1B68BC
:10065C00164A12681146184600F0D0FD022000F030
:10066C00A7FF0346002B05D0FA21022000F04CFF17
:10067C0000F0AEFD0020FFF7E9FD0346002B10D083
:10068C0042F21071012000F03FFF094B09221A6061
:10069C0007E000BF06E000BF04E000BF02E000BFBF
:1006AC0000E000BF00BF98BDB4000020B0000020E7
:1006BC008000002098B500AF9F4B1B68063B032BB6
:1006CC0000F22F8101A252F823F000BFE9060008C6
:1006DC0077070008050800089108000801F040F8A9
:1006EC00042000F0CFFC0120FFF7B0FD0346002BE7
:1006FC0002D0914B07221A60012000F059FF0346EB
:10070C00002B27D000F024F9034619460020FFF7F0
:10071C00F1FD00F013F9034619460120FFF7EAFD3D
:10072C000020FFF701FE04460120FFF7FDFD034604
:10073C001946204600F062FD40F2E241012000F033
:10074C00E3FEFA21022000F0DFFE00F093FD7A4B6D
:10075C000B221A600020FFF779FD0346002B00F0F6
:10076C00E280754B0E221A60DDE001F023F80420C4
:10077C0000F088FC0120FFF769FD0346002B02D036
:10078C006D4B08221A60012000F012FF0346002B6B
:10079C0027D000F0E7F8034619460020FFF7AAFD22
:1007AC0000F0E0F8034619460120FFF7A3FD0020F6
:1007BC00FFF7BAFD04460120FFF7B6FD03461946C4
:1007CC00204600F01BFD40F2E241012000F09CFEAF
:1007DC00FA21022000F098FE00F04CFD564B0B2243
:1007EC001A600020FFF732FD0346002B00F09D80BD
:1007FC00514B0E221A6098E001F006F8042000F02C
:10080C0041FC0120FFF722FD0346002B02D04A4B8E
:10081C0009221A60012000F0CBFE0346002B27D0E2
:10082C0000F08CF8034619460020FFF763FD00F03A
:10083C008FF8034619460120FFF75CFD0020FFF7F7
:10084C0073FD04460120FFF76FFD03461946204651
:10085C0000F0D4FC40F2E241012000F055FEFA21F8
:10086C00022000F051FE00F005FD334B0C221A6003
:10087C000020FFF7EBFC0346002B58D02E4B0E222A
:10088C001A6054E000F0EAFF042000F0FBFB0120AA
:10089C00FFF7DCFC0346002B02D0274B06221A6024
:1008AC00012000F085FE0346002B27D000F05AF8FB
:1008BC00034619460020FFF71DFD00F053F80346D0
:1008CC0019460120FFF716FD0020FFF72DFD044609
:1008DC000120FFF729FD03461946204600F08EFC47
:1008EC0040F2E241012000F00FFEFA21022000F05C
:1008FC000BFE00F0BFFC104B0D221A600020FFF71E
:10090C00A5FC0346002B14D00B4B0E221A60FA21C7
:10091C00022000F0F9FD42F21071012000F0F4FD0C
:10092C0007E000BF06E000BF04E000BF02E000BF2C
:10093C0000E000BF00BF98BD8000002080B400AF75
:10094C00024B1B681846BD4680BC70473C0000201B
:10095C0080B400AF024B1B681846BD4680BC704784
:10096C004000002080B400AF024B1B681846BD4607
:10097C0080BC70474400002080B500AFAD4B1B68B5
:10098C00102B00F02A81102B00F3B5810E2B03D015
:10099C000F2B00F09680AEE1A74B1B680221184686
:1009AC0000F02CFC0020FFF751FC0346002B0CD070
:1009BC0042F21071012000F0A7FD9E4B0F221A602D
:1009CC009E4B00221A6000F055FC0120FFF73EFC04
:1009DC000346002B15D042F21071012000F094FD5B
:1009EC00954B1B68622B03DC934B1B68013300E0B7
:1009FC000023914A1360904B1B680221184600F0AB
:100A0C00FDFB0220FFF722FC0346002B2AD042F20A
:100A1C001071012000F078FD874B1A68884B1B6819
:100A2C00D31A002B02DA874B1B6801E0824B1B6840
:100A3C00844A1360834B1A68834B1B689A4202D119
:100A4C007D4B1B6801E07F4B1B687B4A13607D4B21
:100A5C001A687B4B1B68D31A7C4A13607B4B1B6850
:100A6C007B4A1360022000F0A3FD0346002B18D034
:100A7C00FA21022000F048FD00F0AAFB6F4B1B6826
:100A8C005A1C6E490A60002B02D100F011FF08E0DD
:100A9C006A4B1B68002B04D000F088FF674B0022C8
:100AAC001A60012000F084FD0346002B00F0258124
:100ABC00624B00221A605F4B01221A6000F0DAFBD5
:100ACC001BE1614B1B680321184600F097FB0020CB
:100ADC00FFF7BCFB0346002B0CD0564B10221A60C0
:100AEC0042F21071012000F00FFD544B00221A60ED
:100AFC0000F0C0FB0120FFF7A9FB0346002B15D02B
:100B0C0042F21071012000F0FFFC4F4B1B68622B6E
:100B1C0003DC4D4B1B68013300E000234A4A136091
:100B2C00454B1B680221184600F068FB0220FFF7BA
:100B3C008DFB0346002B21D042F21071012000F0F6
:100B4C00E3FC414B1A68414B1B681344632B02DDD9
:100B5C003B4B1B6801E03C4B1B68394A1360384B1C
:100B6C001B68394A1360394B1A68354B1B681344A0
:100B7C00344A1360334B1B682F4A1360022000F079
:100B8C0017FD0346002B18D0FA21022000F0BCFC04
:100B9C0000F01EFB294B1B685A1C28490A60002BCD
:100BAC0002D100F0D9FE08E0244B1B68002B04D0C6
:100BBC0000F0FCFE214B00221A60012000F0F8FC32
:100BCC000346002B00F09B801C4B00221A60194B33
:100BDC0001221A6000F04EFB91E01D4B1B680421B2
:100BEC00184600F00BFB0020FFF730FB0346002BF0
:100BFC0005D1012000F0DCFC0346002B07D00F4B85
:100C0C0000221A600B4B01221A6000F033FB01200A
:100C1C00FFF71CFB0346002B25D042F2107101207C
:100C2C0000F072FC0A4B1B68622B13DC084B1B6830
:100C3C00013310E0800000204C0000207C000020DC
:100C4C004400002040000020500000203C00002008
:100C5C004800002000232C4A13602B4B1B680221F8
:100C6C00184600F0CBFA0220FFF7F0FA0346002BEF
:100C7C0021D042F21071012000F046FC224B1A6880
:100C8C00224B1B681344632B02DD214B1B6801E0D4
:100C9C001D4B1B681E4A13601D4B1B681A4A1360C0
:100CAC001B4B1A68194B1B6813441A4A1360194BD7
:100CBC001B68194A1360022000F07AFC0346002BD3
:100CCC001FD0FA21022000F01FFC00F081FA134B18
:100CDC001B685A1C11490A60002B02D100F012FE4D
:100CEC000FE00E4B1B68002B0BD000F05FFE0B4B84
:100CFC0000221A6005E000BF04E000BF02E000BF64
:100D0C0000E000BF00BF80BD480000204400002070
:100D1C003C000020400000204C0000207C00002003
:100D2C0080B582B000AF78607B68092B00F28081BF
:100D3C0001A252F823F000BF6D0D0008B50D00089C
:100D4C00FD0D0008450E00088D0E0008D50E00089C
:100D5C001D0F0008650F0008AD0F0008F50F000807
:100D6C0000220121C64801F072F900220221C44878
:100D7C0001F06DF900220421C14801F068F900224C
:100D8C000821BF4801F063F900221021BC4801F092
:100D9C005EF900222021BA4801F059F901224021C4
:100DAC00B74801F054F967E101220121B44801F080
:100DBC004EF900220221B24801F049F90022042127
:100DCC00AF4801F044F901220821AD4801F03FF988
:100DDC0001221021AA4801F03AF901222021A84849
:100DEC0001F035F901224021A54801F030F943E129
:100DFC0000220121A24801F02AF900220221A04878
:100E0C0001F025F9012204219D4801F020F900226E
:100E1C0008219B4801F01BF900221021984801F091
:100E2C0016F901222021964801F011F900224021E7
:100E3C00934801F00CF91FE100220121904801F0C8
:100E4C0006F9002202218E4801F001F9002204214A
:100E5C008B4801F0FCF800220821894801F0F7F8D2
:100E6C0001221021864801F0F2F801222021844849
:100E7C0001F0EDF800224021814801F0E8F8FBE098
:100E8C00012201217E4801F0E2F8002202217C4877
:100E9C0001F0DDF800220421794801F0D8F8012294
:100EAC000821774801F0D3F801221021744801F091
:100EBC00CEF800222021724801F0C9F8002240210E
:100ECC006F4801F0C4F8D7E0002201216C4801F012
:100EDC00BEF8012202216A4801F0B9F8002204216F
:100EEC00674801F0B4F800220821654801F0AFF81A
:100EFC0001221021624801F0AAF80022202160484A
:100F0C0001F0A5F8002240215D4801F0A0F8B3E003
:100F1C00002201215A4801F09AF801220221584876
:100F2C0001F095F800220421554801F090F80022B8
:100F3C000821534801F08BF800221021504801F091
:100F4C0086F8002220214E4801F081F80022402131
:100F5C004B4801F07CF88FE000220121484801F059
:100F6C0076F800220221464801F071F80022042193
:100F7C00434801F06CF801220821414801F067F860
:100F8C00012210213E4801F062F8012220213C4848
:100F9C0001F05DF801224021394801F058F86BE06E
:100FAC0000220121364801F052F800220221344877
:100FBC0001F04DF800220421314801F048F80022DC
:100FCC0008212F4801F043F8002210212C4801F091
:100FDC003EF8002220212A4801F039F80022402155
:100FEC00274801F034F847E000220121244801F0A1
:100FFC002EF800220221224801F029F800220421B7
:10100C001F4801F024F8002208211D4801F01FF8A8
:10101C00012210211A4801F01AF800222021184848
:10102C0001F015F800224021154801F010F823E0DA
:10103C0001220121124801F00AF801220221104874
:10104C0001F005F8012204210D4801F000F80122FD
:10105C0008210B4800F0FBFF01221021084800F08A
:10106C00F6FF01222021064800F0F1FF0122402169
:10107C00034800F0ECFF00BF00BF0837BD4680BD41
:10108C00000C014080B582B000AF78607B68032B08
:10109C007ED801A252F823F0B5100008EF1000081A
:1010AC00291100086311000800228021464800F035
:1010BC00CEFF01224FF48071434800F0C8FF01229B
:1010CC004FF40071404800F0C2FF01224FF48061E0
:1010DC003D4800F0BCFF3D4B1B681846FFF720FE57
:1010EC006EE001228021384800F0B1FF00224FF45D
:1010FC008071354800F0ABFF01224FF4007132488B
:10110C0000F0A5FF01224FF480612F4800F09FFFF3
:10111C002E4B5B681846FFF703FE51E0012280213D
:10112C00294800F094FF01224FF48071264800F00A
:10113C008EFF00224FF40071234800F088FF01223B
:10114C004FF48061204800F082FF204B9B681846CA
:10115C00FFF7E6FD34E0012280211B4800F077FF09
:10116C0001224FF48071184800F071FF01224FF4F6
:10117C000071154800F06BFF00224FF4806112489B
:10118C0000F065FF114BDB681846FFF7C9FD17E04F
:10119C00012280210C4800F05AFF01224FF480718B
:1011AC00094800F054FF01224FF40071064800F08A
:1011BC004EFF01224FF48061034800F048FF00BF4E
:1011CC0000BF0837BD4680BD000C0140A0000020C8
:1011DC0080B500AF084B1B68032B02DD064B0022C9
:1011EC001A60054B1B685A1C03490A601846FFF726
:1011FC0049FF00BF80BD00BF8400002080B483B0D5
:10120C0000AF786039607B68184A82FB0312921039
:10121C00DB17D31A164A13607968144B83FB01232E
:10122C009A10CB17D21A13469B0013445B00CA1AB0
:10123C000F4B5A603B680D4A82FB03129210DB176E
:10124C00D31A0B4A93603968084B83FB01239A101D
:10125C00CB17D21A13469B0013445B00CA1A044BDB
:10126C00DA6000BF0C37BD4680BC704767666666A7
:10127C00A000002080B400AF034B00221A6000BF16
:10128C00BD4680BC704700BF8400002080B500AF15
:10129C0000F0DCFB00F02CF800F0B2F800F064F881
:1012AC00104801F031FB4FF47A71002000F02CF95A
:1012BC000D4B01221A60002000F07AF90346002B36
:1012CC0008D04FF47A71002000F01EF92021074855
:1012DC0000F0D5FEFFF7EEF9FFF74EFBFFF740F8F5
:1012EC00E9E700BFB80000208000002000080140A2
:1012FC0080B590B000AF07F11803282200211846E2
:10130C0001F0B2FE3B1D00221A605A609A60DA604E
:10131C001A610223BB610123BB621023FB62002311
:10132C007B6307F11803184600F0C2FE0346002B3E
:10133C0001D000F0E3F80F237B600023BB60002397
:10134C00FB6000233B6100237B613B1D00211846A1
:10135C0001F02EF90346002B01D000F0CFF800BFAE
:10136C004037BD4680BD000080B586B000AF07F1A8
:10137C00080300221A605A609A60DA603B46002229
:10138C001A605A601D4B4FF080421A601B4B41F69D
:10139C003F725A60194B00229A60184B0922DA608E
:1013AC00164B00221A61154B00229A61134801F06A
:1013BC005BFA0346002B01D000F0A0F84FF48053E9
:1013CC00BB6007F1080319460C4801F0D9FB034632
:1013DC00002B01D000F092F800233B6000237B60CF
:1013EC003B461946054801F0B1FD0346002B01D0E0
:1013FC0000F084F800BF1837BD4680BDB80000204F
:10140C0080B588B000AF07F1100300221A605A6053
:10141C009A60DA602F4B9B692E4A43F0100393615C
:10142C002C4B9B6903F01003FB60FB68294B9B69F9
:10143C00284A43F004039361264B9B6903F0040391
:10144C00BB60BB68234B9B69224A43F00803936142
:10145C00204B9B6903F008037B607B6800224FF6EE
:10146C0020411D4800F0F3FD002240F2FF711B48A3
:10147C0000F0EDFD4FF460433B6100237B610123E1
:10148C00BB6107F110031946154800F04FFC4FF6ED
:10149C0020433B6101237B610023BB610223FB6181
:1014AC0007F1100319460C4800F040FC40F2FF73A2
:1014BC003B6101237B610023BB610223FB6107F1CC
:1014CC0010031946054800F031FC00BF2037BD461B
:1014DC0080BD00BF0010024000080140000C01401C
:1014EC000010014080B582B000AF786000F030F899
:1014FC00FEF726FE00BF0837BD4680BD80B400AFA6
:10150C0072B600BFFEE7000080B483B000AF786015
:10151C0039607B68022B0FDC3B680A4A82FB0312A2
:10152C009210DB17D21A08497B6841F82320074A2E
:10153C007B68002142F8231000BF0C37BD4680BCED
:10154C00704700BF67666666000100200C01002032
:10155C0080B483B000AF00237B601CE0124A7B6830
:10156C0052F82330002B13DB0F4A7B6852F82330E0
:10157C005A1E0D497B6841F823200B4A7B6852F8B0
:10158C002330002B04DC094A7B68012142F823102C
:10159C007B6801337B607B68022BDFDD00BF00BF03
:1015AC000C37BD4680BC7047000100200C010020A8
:1015BC0080B483B000AF78607B68022B0EDC0B4AE2
:1015CC007B6852F82330012B06D1084A7B68002136
:1015DC0042F82310012303E0002301E04FF0FF3316
:1015EC0018460C37BD4680BC704700BF0C0100206C
:1015FC0080B485B000AF154B9B69144A43F00103CE
:10160C009361124B9B6903F00103BB60BB680F4BEA
:10161C00DB690E4A43F08053D3610C4BDB6903F05A
:10162C0080537B607B680A4B5B68FB60FB6823F034
:10163C00E063FB60FB6843F08063FB60044AFB687B
:10164C00536000BF1437BD4680BC70470010024089
:10165C000000014080B584B000AF78607B681B68E7
:10166C00B3F1804F13D10C4BDB690B4A43F00103F0
:10167C00D361094BDB6903F00103FB60FB680022BB
:10168C0000211C2000F01BFB1C2000F034FB00BFD1
:10169C001037BD4680BD00BF0010024080B400AFC3
:1016AC00FEE780B400AFFEE780B400AFFEE780B485
:1016BC0000AFFEE780B400AFFEE780B400AF00BF20
:1016CC00BD4680BC704780B400AF00BFBD4680BC37
:1016DC00704780B400AF00BFBD4680BC704780B57A
:1016EC0000AF00F0F9F900BF80BD000080B500AF7D
:1016FC00024801F055F900BF80BD00BFB8000020C2
:10170C0080B400AF00BFBD4680BC704780B500AF51
:10171C0001224FF48061114800F099FC01224FF432
:10172C0080510E4800F093FC01224FF400610B48ED
:10173C0000F08DFC01224FF40051084800F087FCAA
:10174C0001224FF40041054800F081FC01224FF4C6
:10175C008041024800F07BFC00BF80BD00080140C6
:10176C0080B500AF00224FF48061114800F06FFC8F
:10177C0001224FF480510E4800F069FC01224FF415
:10178C0000610B4800F063FC01224FF40051084843
:10179C0000F05DFC01224FF40041054800F057FCBD
:1017AC0000224FF48041024800F051FC00BF80BD84
:1017BC000008014080B500AF00224FF48061114851
:1017CC0000F045FC01224FF480510E4800F03FFC24
:1017DC0001224FF400610B4800F039FC01224FF458
:1017EC000051084800F033FC00224FF4004105483A
:1017FC0000F02DFC01224FF48041024800F027FC40
:10180C0000BF80BD0008014080B500AF01224FF43D
:10181C008061114800F01BFC01224FF480510E48EE
:10182C0000F015FC00224FF400610B4800F00FFC97
:10183C0000224FF40051084800F009FC01224FF43B
:10184C000041054800F003FC01224FF4804102489E
:10185C0000F0FDFB00BF80BD0008014080B500AF6B
:10186C0001224FF48061114800F0F1FB00224FF48B
:10187C0080510E4800F0EBFB01224FF400610B4845
:10188C0000F0E5FB00224FF40051084800F0DFFBAC
:10189C0001224FF40041054800F0D9FB01224FF41E
:1018AC008041024800F0D3FB00BF80BD000801401E
:1018BC0080B500AF00224FF48061114800F0C7FBE7
:1018CC0001224FF480510E4800F0C1FB01224FF46D
:1018DC0000610B4800F0BBFB00224FF4005108489C
:1018EC0000F0B5FB01224FF40041054800F0AFFBBE
:1018FC0001224FF48041024800F0A9FB00BF80BDDB
:10190C000008014080B500AF01224FF480611148FE
:10191C0000F09DFB01224FF480510E4800F097FB24
:10192C0000224FF400610B4800F091FB01224FF4B0
:10193C000051084800F08BFB01224FF40041054890
:10194C0000F085FB00224FF48041024800F07FFB41
:10195C0000BF80BD0008014080B500AF01224FF4EC
:10196C008061114800F073FB00224FF480510E4847
:10197C0000F06DFB01224FF400610B4800F067FB97
:10198C0001224FF40051084800F061FB00224FF493
:10199C000041054800F05BFB01224FF480410248F6
:1019AC0000F055FB00BF80BD0008014080B500AFC2
:1019BC0001224FF48061114800F049FB01224FF4E1
:1019CC0080510E4800F043FB01224FF400610B489C
:1019DC0000F03DFB01224FF40051084800F037FBAA
:1019EC0001224FF40041054800F031FB01224FF475
:1019FC008041024800F02BFB00BF80BD0008014075
:101A0C00FFF77EFE0B480C490C4A002302E0D45829
:101A1C00C4500433C4188C42F9D3094A094C00232E
:101A2C0001E013600432A242FBD301F0F9FAFFF794
:101A3C002DFC70470000002060000020C83000081A
:101A4C00600000201C010020FEE7000080B500AF04
:101A5C00084B1B68074A43F010031360032000F087
:101A6C0023F90F2000F008F8FFF7C2FD00231846F9
:101A7C0080BD00BF0020024080B582B000AF78600E
:101A8C00124B1A68124B1B7819464FF47A73B3FB3E
:101A9C00F1F3B2FBF3F3184600F03BF90346002BCD
:101AAC0001D001230EE07B680F2B0AD80022796845
:101ABC004FF0FF3000F003F9064A7B6813600023F7
:101ACC0000E0012318460837BD4680BD54000020B5
:101ADC005C0000205800002080B400AF054B1B7840
:101AEC001A46054B1B681344034A136000BFBD46DE
:101AFC0080BC70475C0000201801002080B400AF4F
:101B0C00024B1B681846BD4680BC7047180100206C
:101B1C0080B485B000AF78607B6803F00703FB608E
:101B2C000C4BDB68BB60BA684FF6FF031340BB601D
:101B3C00FB681A02BB68134343F0BF6343F40033E2
:101B4C00BB60044ABB68D36000BF1437BD4680BC81
:101B5C00704700BF00ED00E080B400AF044BDB68C1
:101B6C001B0A03F007031846BD4680BC704700BF34
:101B7C0000ED00E080B483B000AF0346FB7197F931
:101B8C000730002B0BDBFB7903F01F02064997F99A
:101B9C0007305B09012000FA02F241F8232000BF54
:101BAC000C37BD4680BC704700E100E080B483B0C8
:101BBC0000AF03463960FB7197F90730002B0ADB45
:101BCC003B68DAB20C4997F907301201D2B20B44D8
:101BDC0083F800230AE03B68DAB20849FB7903F08A
:101BEC000F03043B1201D2B20B441A7600BF0C3720
:101BFC00BD4680BC704700BF00E100E000ED00E096
:101C0C0080B489B000AFF860B9607A60FB6803F00B
:101C1C000703FB61FB69C3F10703042B28BF0423F3
:101C2C00BB61FB690433062B02D9FB69033B00E063
:101C3C0000237B614FF0FF32BB6902FA03F3DA43F6
:101C4C00BB681A407B699A404FF0FF317B6901FAFF
:101C5C0003F3D9437B680B40134318462437BD4626
:101C6C0080BC704780B582B000AF78607B68013B68
:101C7C00B3F1807F01D301230FE00A4A7B68013B5B
:101C8C0053600F214FF0FF30FFF790FF054B002200
:101C9C009A60044B07221A60002318460837BD4689
:101CAC0080BD00BF10E000E080B582B000AF78606E
:101CBC007868FFF72DFF00BF0837BD4680BD80B5A3
:101CCC0086B000AF0346B9607A60FB7300237B617A
:101CDC00FFF742FF78617A68B9687869FFF790FF7F
:101CEC00024697F90F3011461846FFF75FFF00BF09
:101CFC001837BD4680BD80B582B000AF0346FB717E
:101D0C0097F907301846FFF735FF00BF0837BD4677
:101D1C0080BD80B582B000AF78607868FFF7A2FF15
:101D2C00034618460837BD4680BD000080B48BB012
:101D3C0000AF7860396000237B6200233B6248E18E
:101D4C0001227B6A02FA03F3FB613B681B68FA69A8
:101D5C001340BB61BA69FB699A4240F037813B681A
:101D6C005B68A34A93425ED0A14A934275D8A14ABC
:101D7C00934258D09F4A93426FD89F4A934252D075
:101D8C009D4A934269D89D4A93424CD09B4A9342B8
:101D9C0063D89B4A934246D0994A93425DD8122B02
:101DAC002AD8122B59D801A252F823F0331E00085E
:101DBC000D1E00081F1E0008611E0008671E00088B
:101DCC00671E0008671E0008671E0008671E0008D3
:101DDC00671E0008671E0008671E0008671E0008C3
:101DEC00671E0008671E0008671E0008671E0008B3
:101DFC00151E0008291E0008824A934213D02CE0BD
:101E0C003B68DB683B6229E03B68DB6804333B6280
:101E1C0024E03B68DB6808333B621FE03B68DB680F
:101E2C000C333B621AE03B689B68002B02D1042305
:101E3C003B6213E03B689B68012B05D108233B6296
:101E4C007B68FA691A6109E008233B627B68FA69CE
:101E5C005A6103E000233B6200E000BFBB69FF2B2B
:101E6C0001D87B6801E07B6804337B61BB69FF2B85
:101E7C0002D87B6A9B0002E07B6A083B9B003B61BB
:101E8C007B691A680F213B6901FA03F3DB431A40A3
:101E9C00396A3B6901FA03F31A437B691A603B68A0
:101EAC005B6803F08053002B00F09080564B9B69CD
:101EBC00554A43F001039361534B9B6903F00103B3
:101ECC00BB60BB68514A7B6A9B08023352F82330D3
:101EDC00FB607B6A03F003039B000F2202FA03F3FF
:101EEC00DB43FA681340FB607B68494A93420DD090
:101EFC007B68484A934207D07B68474A934201D19A
:101F0C00022304E0032302E0012300E000237A6AA9
:101F1C0002F0030292009340FA681343FB603B49C2
:101F2C007B6A9B080233FA6841F823203B685B68A4
:101F3C0003F48013002B06D0384B9A683749BB69E1
:101F4C0013438B6006E0354B9A68BB69DB4333491E
:101F5C0013408B603B685B6803F40013002B06D0C6
:101F6C002E4BDA682D49BB691343CB6006E02B4B33
:101F7C00DA68BB69DB4329491340CB603B685B687B
:101F8C0003F40033002B06D0244B5A682349BB6959
:101F9C0013434B6006E0214B5A68BB69DB431F4976
:101FAC0013404B603B685B6803F48033002B06D016
:101FBC001A4B1A681949BB6913430B6006E0174B9F
:101FCC001A68BB69DB43154913400B607B6A01330C
:101FDC007B623B681A687B6A22FA03F3002B7FF45E
:101FEC00AFAE00BF00BF2C37BD4680BC704700BFF2
:101FFC0000003210000031100000221000002110EF
:10200C0000001210000011100010024000000140EE
:10201C0000080140000C0140001001400004014088
:10202C0080B485B000AF78600B467B807B689A6883
:10203C007B881340002B02D00123FB7301E00023AB
:10204C00FB73FB7B18461437BD4680BC704780B4CD
:10205C0083B000AF78600B467B8013467B707B7837
:10206C00002B03D07A887B681A6103E07B881A0402
:10207C007B681A6100BF0C37BD4680BC704780B4CA
:10208C0085B000AF78600B467B807B68DB68FB60BB
:10209C007A88FB6813401A04FB68D9437B880B4091
:1020AC001A437B681A6100BF1437BD4680BC704769
:1020BC0080B586B000AF78607B68002B01D101231E
:1020CC006CE27B681B6803F00103002B00F0878037
:1020DC00924B5B6803F00C03042B0CD08F4B5B68AA
:1020EC0003F00C03082B12D18C4B5B6803F4803388
:1020FC00B3F5803F0BD1894B1B6803F40033002BE5
:10210C006CD07B685B68002B68D1012346E27B684E
:10211C005B68B3F5803F06D1804B1B687F4A43F464
:10212C00803313602EE07B685B68002B0CD17B4BFB
:10213C001B687A4A23F480331360784B1B68774A08
:10214C0023F4802313601DE07B685B68B3F5A02F3C
:10215C000CD1724B1B68714A43F4802313606F4B94
:10216C001B686E4A43F4803313600BE06B4B1B68A7
:10217C006A4A23F480331360684B1B68674A23F464
:10218C00802313607B685B68002B13D0FFF7B6FCD1
:10219C00386108E0FFF7B2FC02463B69D31A642BA6
:1021AC0001D90323FAE15D4B1B6803F40033002BC8
:1021BC00F0D014E0FFF7A2FC386108E0FFF79EFCBA
:1021CC0002463B69D31A642B01D90323E6E1534B36
:1021DC001B6803F40033002BF0D100E000BF7B68D8
:1021EC001B6803F00203002B63D04C4B5B6803F0BD
:1021FC000C03002B0BD0494B5B6803F00C03082B32
:10220C001CD1464B5B6803F48033002B16D1434B37
:10221C001B6803F00203002B05D07B681B69012BA4
:10222C0001D00123BAE13D4B1B6823F0F8027B6817
:10223C005B69DB00394913430B603AE07B681B692F
:10224C00002B20D0364B01221A60FFF757FC386167
:10225C0008E0FFF753FC02463B69D31A022B01D965
:10226C0003239BE12D4B1B6803F00203002BF0D0E2
:10227C002A4B1B6823F0F8027B685B69DB0027495B
:10228C0013430B6015E0264B00221A60FFF736FC57
:10229C00386108E0FFF732FC02463B69D31A022B87
:1022AC0001D903237AE11D4B1B6803F00203002BB9
:1022BC00F0D17B681B6803F00803002B3AD07B68D5
:1022CC009B69002B19D0174B01221A60FFF716FCE3
:1022DC00386108E0FFF712FC02463B69D31A022B67
:1022EC0001D903235AE10D4B5B6A03F00203002B67
:1022FC00F0D0012000F09AFA1CE00A4B00221A6080
:10230C00FFF7FCFB38610FE0FFF7F8FB02463B6977
:10231C00D31A022B08D9032340E100BF001002405E
:10232C0000004242800442429E4B5B6A03F002036F
:10233C00002BE9D17B681B6803F00403002B00F031
:10234C00A6800023FB75974BDB6903F08053002BB1
:10235C000DD1944BDB69934A43F08053D361914B7D
:10236C00DB6903F08053BB60BB680123FB758E4BAC
:10237C001B6803F48073002B18D18B4B1B688A4AA3
:10238C0043F480731360FFF7B9FB386108E0FFF783
:10239C00B5FB02463B69D31A642B01D90323FDE03C
:1023AC00814B1B6803F48073002BF0D07B68DB68D7
:1023BC00012B06D17B4B1B6A7A4A43F00103136253
:1023CC002DE07B68DB68002B0CD1764B1B6A754AC1
:1023DC0023F001031362734B1B6A724A23F004034C
:1023EC0013621CE07B68DB68052B0CD16D4B1B6A00
:1023FC006C4A43F0040313626A4B1B6A694A43F04C
:10240C00010313620BE0674B1B6A664A23F001035E
:10241C001362644B1B6A634A23F0040313627B68E8
:10242C00DB68002B15D0FFF769FB38610AE0FFF77A
:10243C0065FB02463B69D31A41F28832934201D9BB
:10244C000323ABE0574B1B6A03F00203002BEED0C7
:10245C0014E0FFF753FB38610AE0FFF74FFB02462D
:10246C003B69D31A41F28832934201D9032395E098
:10247C004C4B1B6A03F00203002BEED1FB7D012BAE
:10248C0005D1484BDB69474A23F08053D3617B6805
:10249C00DB69002B00F08180424B5B6803F00C037E
:1024AC00082B61D07B68DB69022B46D13F4B0022A5
:1024BC001A60FFF723FB386108E0FFF71FFB0246A9
:1024CC003B69D31A022B01D9032367E0354B1B68F8
:1024DC0003F00073002BF0D17B681B6AB3F5803FCF
:1024EC0008D1304B5B6823F400327B689B682D4924
:1024FC0013434B602B4B5B6823F474127B68196A93
:10250C007B685B6A0B43274913434B60274B0122C3
:10251C001A60FFF7F3FA386108E0FFF7EFFA0246AA
:10252C003B69D31A022B01D9032337E01D4B1B68DF
:10253C0003F00073002BF0D02FE01C4B00221A602C
:10254C00FFF7DCFA386108E0FFF7D8FA02463B697E
:10255C00D31A022B01D9032320E0124B1B6803F082
:10256C000073002BF0D118E07B68DB69012B01D1E3
:10257C00012313E00B4B5B68FB60FB6803F48032B8
:10258C007B681B6A9A4206D1FB6803F470127B6865
:10259C005B6A9A4201D0012300E0002318461837E9
:1025AC00BD4680BD001002400070004060004242F9
:1025BC0080B584B000AF786039607B68002B01D1A6
:1025CC000123D0E06A4B1B6803F007033A689A4278
:1025DC0010D9674B1B6823F0070265493B6813430E
:1025EC000B60634B1B6803F007033A689A4201D0F7
:1025FC000123B8E07B681B6803F00203002B20D09A
:10260C007B681B6803F00403002B05D0594B5B68F7
:10261C00584A43F4E06353607B681B6803F008037B
:10262C00002B05D0534B5B68524A43F46053536004
:10263C00504B5B6823F0F0027B689B684D49134359
:10264C004B607B681B6803F00103002B40D07B6858
:10265C005B68012B07D1474B1B6803F40033002B3D
:10266C0015D101237FE07B685B68022B07D1414BBE
:10267C001B6803F00073002B09D1012373E03D4B61
:10268C001B6803F00203002B01D101236BE0394BD3
:10269C005B6823F003027B685B68364913434B602D
:1026AC00FFF72CFAF8600AE0FFF728FA0246FB68FD
:1026BC00D31A41F28832934201D9032353E02D4BB4
:1026CC005B6803F00C027B685B689B009A42EBD161
:1026DC00274B1B6803F007033A689A4210D2244B2D
:1026EC001B6823F0070222493B6813430B60204B05
:1026FC001B6803F007033A689A4201D0012332E0C9
:10270C007B681B6803F00403002B08D0194B5B6833
:10271C0023F4E0627B68DB68164913434B607B68EB
:10272C001B6803F00803002B09D0124B5B6823F4E1
:10273C0060527B681B69DB000E4913434B6000F051
:10274C0021F802460B4B5B681B0903F00F030A4987
:10275C00CB5C22FA03F3094A1360094B1B68184639
:10276C00FFF78AF9002318461037BD4680BD00BF1D
:10277C0000200240001002409C3000085400002051
:10278C005800002080B487B000AF0023FB6000230A
:10279C00BB6000237B6100237B6000233B611E4BED
:1027AC005B68FB60FB6803F00C03042B02D0082B66
:1027BC0003D027E0194B3B6127E0FB689B0C03F02F
:1027CC000F03174AD35C7B60FB6803F48033002B48
:1027DC0010D0114B5B685B0C03F00103114AD35C06
:1027EC00BB607B680D4A02FB03F2BB68B2FBF3F3E0
:1027FC007B6104E07B680C4A02FB03F37B617B6921
:10280C003B6102E0054B3B6100BF3B6918461C373E
:10281C00BD4680BC704700BF0010024000127A0019
:10282C00AC300008BC30000800093D0080B485B015
:10283C0000AF78600A4B1B680A4AA2FB03235B0AB1
:10284C007A6802FB03F3FB6000BFFB685A1EFA6058
:10285C00002BF9D100BF00BF1437BD4680BC7047B8
:10286C0054000020D34D621080B582B000AF786068
:10287C007B68002B01D1012341E07B6893F83D304C
:10288C00DBB2002B06D17B68002283F83C207868F1
:10289C00FEF7E0FE7B68022283F83D207B681A6815
:1028AC007B6804331946104600F056FA7B68012207
:1028BC0083F846207B68012283F83E207B68012246
:1028CC0083F83F207B68012283F840207B6801223B
:1028DC0083F841207B68012283F842207B68012227
:1028EC0083F843207B68012283F844207B68012213
:1028FC0083F845207B68012283F83D20002318468D
:10290C000837BD4680BD000080B485B000AF78604C
:10291C007B6893F83D30DBB2012B01D0012335E00D
:10292C007B68022283F83D207B681B68DA687B6831
:10293C001B6842F00102DA607B681B68164A9342FE
:10294C0009D07B681B68B3F1804F04D07B681B688F
:10295C00124A934211D17B681B689B6803F00703F2
:10296C00FB60FB68062B10D07B681B681A687B68C1
:10297C001B6842F001021A6007E07B681B681A684A
:10298C007B681B6842F001021A600023184614375A
:10299C00BD4680BC704700BF002C014000040040C5
:1029AC0080B584B000AF78607B681B68DB68FB6027
:1029BC007B681B681B69BB60BB6803F00203002BC0
:1029CC0020D0FB6803F00203002B1BD07B681B6834
:1029DC006FF002021A617B6801221A777B681B6810
:1029EC009B6903F00303002B03D0786800F098F97F
:1029FC0005E0786800F08BF9786800F09AF97B684C
:102A0C0000221A77BB6803F00403002B20D0FB686C
:102A1C0003F00403002B1BD07B681B686FF00402CF
:102A2C001A617B6802221A777B681B689B6903F426
:102A3C004073002B03D0786800F072F905E07868D9
:102A4C0000F065F9786800F074F97B6800221A7759
:102A5C00BB6803F00803002B20D0FB6803F00803CD
:102A6C00002B1BD07B681B686FF008021A617B6817
:102A7C0004221A777B681B68DB6903F00303002BC5
:102A8C0003D0786800F04CF905E0786800F03FF965
:102A9C00786800F04EF97B6800221A77BB6803F067
:102AAC001003002B20D0FB6803F01003002B1BD06D
:102ABC007B681B686FF010021A617B6808221A771A
:102ACC007B681B68DB6903F44073002B03D07868C8
:102ADC0000F026F905E0786800F019F9786800F044
:102AEC0028F97B6800221A77BB6803F00103002BDE
:102AFC000CD0FB6803F00103002B07D07B681B682C
:102B0C006FF001021A617868FEF7ECFCBB6803F009
:102B1C008003002B0CD0FB6803F08003002B07D044
:102B2C007B681B686FF080021A61786800F06FFA9E
:102B3C00BB6803F04003002B0CD0FB6803F0400390
:102B4C00002B07D07B681B686FF040021A61786815
:102B5C0000F0F8F8BB6803F02003002B0CD0FB68E6
:102B6C0003F02003002B07D07B681B686FF020025A
:102B7C001A61786800F042FA00BF1037BD4680BD7C
:102B8C0080B584B000AF786039600023FB737B683C
:102B9C0093F83C30012B01D10223B4E07B68012275
:102BAC0083F83C207B68022283F83D207B681B68FD
:102BBC009B68BB60BB6823F07703BB60BB6823F4E6
:102BCC007F43BB607B681B68BA689A603B681B6874
:102BDC00B3F5005F3ED0B3F5005F00F28780B3F52C
:102BEC00805F00F08680B3F5805F7FD8702B1AD0A1
:102BFC00702B7BD8602B50D0602B77D8502B3CD0CF
:102C0C00502B73D8402B58D0402B6FD8302B64D01E
:102C1C00302B6BD8202B60D0202B67D8002B5CD0AE
:102C2C00102B5AD062E07B6818683B6899683B6847
:102C3C005A683B68DB6800F06AF97B681B689B6824
:102C4C00BB60BB6843F07703BB607B681B68BA68EA
:102C5C009A604FE07B6818683B6899683B685A68D3
:102C6C003B68DB6800F053F97B681B689A687B68EB
:102C7C001B6842F480429A603CE07B6818683B68B1
:102C8C0059683B68DB681A4600F0CAF87B681B6819
:102C9C005021184600F021F92CE07B6818683B683D
:102CAC0059683B68DB681A4600F0E8F87B681B68DB
:102CBC006021184600F011F91CE07B6818683B682D
:102CCC0059683B68DB681A4600F0AAF87B681B68F9
:102CDC004021184600F001F90CE07B681A683B684B
:102CEC001B681946104600F0F8F803E00123FB734B
:102CFC0000E000BF7B68012283F83D207B68002246
:102D0C0083F83C20FB7B18461037BD4680BD80B451
:102D1C0083B000AF786000BF0C37BD4680BC7047F5
:102D2C0080B483B000AF786000BF0C37BD4680BC68
:102D3C00704780B483B000AF786000BF0C37BD46DD
:102D4C0080BC704780B483B000AF786000BF0C3794
:102D5C00BD4680BC7047000080B485B000AF786081
:102D6C0039607B681B68FB607B682B4A934207D0F9
:102D7C007B68B3F1804F03D07B68284A934208D11B
:102D8C00FB6823F07003FB603B685B68FA681343D5
:102D9C00FB607B68204A934207D07B68B3F1804F7D
:102DAC0003D07B681D4A934208D1FB6823F440731F
:102DBC00FB603B68DB68FA681343FB60FB6823F03D
:102DCC0080023B685B691343FB607B68FA681A609E
:102DDC003B689A687B68DA623B681A687B689A621F
:102DEC007B680D4A934203D13B681A697B681A636E
:102DFC007B6801225A617B681B6903F00103002B7D
:102E0C0005D07B681B6923F001027B681A6100BF47
:102E1C001437BD4680BC7047002C014000040040B4
:102E2C0080B487B000AFF860B9607A60FB681B6A49
:102E3C007B61FB681B6A23F00102FB681A62FB686A
:102E4C009B693B613B6923F0F0033B617B681B0191
:102E5C003A6913433B617B6923F00A037B617A690E
:102E6C00BB6813437B61FB683A699A61FB687A69BA
:102E7C001A6200BF1C37BD4680BC704780B487B057
:102E8C0000AFF860B9607A60FB681B6A7B61FB6815
:102E9C001B6A23F01002FB681A62FB689B693B619A
:102EAC003B6923F470433B617B681B033A69134312
:102EBC003B617B6923F0A0037B61BB681B017A69D2
:102ECC0013437B61FB683A699A61FB687A691A6201
:102EDC0000BF1C37BD4680BC704780B485B000AFC6
:102EEC00786039607B689B68FB60FB6823F070033B
:102EFC00FB603A68FB68134343F00703FB607B6895
:102F0C00FA689A6000BF1437BD4680BC704780B425
:102F1C0087B000AFF860B9607A603B60FB689B6873
:102F2C007B617B6923F47F437B613B681A027B687E
:102F3C001A43BB6813437A6913437B61FB687A6954
:102F4C009A6000BF1C37BD4680BC704780B485B00A
:102F5C0000AF786039607B6893F83C30012B01D16D
:102F6C00022341E07B68012283F83C207B6802222B
:102F7C0083F83D207B681B685B68FB607B681B6883
:102F8C009B68BB60FB6823F07003FB603B681B68AD
:102F9C00FA681343FB607B681B68FA685A607B68AD
:102FAC001B68144A934209D07B681B68B3F1804FAD
:102FBC0004D07B681B68104A93420CD1BB6823F089
:102FCC008003BB603B685B68BA681343BB607B687B
:102FDC001B68BA689A607B68012283F83D207B6885
:102FEC00002283F83C20002318461437BD4680BCD1
:102FFC00704700BF002C01400004004080B483B037
:10300C0000AF786000BF0C37BD4680BC704780B401
:10301C0083B000AF786000BF0C37BD4680BC7047F2
:10302C0070B500260C4D0D4C641BA410A64209D1A2
:10303C0000F022F800260A4D0A4C641BA410A6428C
:10304C0005D170BD55F8043B98470136EEE755F8AD
:10305C00043B98470136F2E7C0300008C030000846
:10306C00C0300008C430000803460244934200D12B
:10307C00704703F8011BF9E7F8B500BFF8BC08BCB2
:10308C009E467047F8B500BFF8BC08BC9E4670471A
:10309C0000000000000000000102030406070809FC
:1030AC0002030405060708090A0B0C0D0E0F10107D
:0430BC00010200000D
:0430C00031010008D2
:0430C4000D010008F2
:1030C80001000000010000000100000001000000F4
:1030D80001000000010000000100000001000000E4
:1030E80001000000010000000100000001000000D4
:1030F8006400000064000000640000005C00000040
:1031080062000000060000005C0000006200000091
:103118000600000000127A00100000000100000004
:0400000508001A0DC8
:00000001FF
